:020000040800F2
:10000000E80F0020950100089D0100089F010008ED
:10001000A1010008A3010008A501000800000000DC
:10002000000000000000000000000000A701000820
:10003000A901000800000000AB010008AD010008A4
:10004000AF010008AF010008AF010008AF010008D0
:10005000AF010008AF010008AF010008AF010008C0
:10006000AF010008AF010008AF010008AF010008B0
:10007000AF010008AF010008AF010008AF010008A0
:10008000AF010008AF010008AF0100080000000048
:10009000000000000000000000000000AF010008A8
:1000A000AF010008AF010008AF010008AF01000870
:1000B000AF010008AF010008AF010008AF01000860
:1000C000AF010008AF010008AF010008AF01000850
:1000D000AF010008AF010008AF01000800000000F8
:1000E000FF7A0008AF010008AF010008000000001F
:1000F000000000000000000000000000AF01000848
:1001000000000000AF010008AF010008AF010008C7
:1001100000000000000000000000000000000000DF
:10012000AF010008AF010008AF010008AF010008EF
:10013000AF01000800000000000000000000000007
:10014000000000000000000000000000AF010008F7
:10015000AF010008AF010008AF010008AF010008BF
:10016000AF010008AF01000800000000000000001F
:10017000000000000000000000000000000000007F
:1001800000000000AF0100080000000000000000B7
:10019000AF0100080948804709480047FEE7FEE72D
:1001A000FEE7FEE7FEE7FEE7FEE7FEE7FEE7FEE727
:1001B00004480549054A064B70470000DD01000868
:1001C0007D2D0008E8090020E80F0020E80B002042
:1001D000E80B002070477047704700004EF68851CA
:1001E000CEF20001086840F470000860704700001B
:1001F00006B54248006806BD0FB54148016841F0A8
:10020000010101604FF6FF72016811F0020F02D187
:10021000013AF9D135E03B4840F20221016038480B
:100220004FF0000141F0100141F4285141F48001E8
:1002300041604FF6FF72016841F080710160016812
:1002400011F0007F02D1013AF9D10CE04FF6FF72B4
:10025000816841F002018160816801F00C01082988
:100260000FD0013AF8D12648816821F0030181605E
:1002700021F4E05121F460418160224840F20111F3
:1002800001600FBD03B520486FF07F4101601B483E
:100290004FF0000101601D484FF00501016003BDF2
:1002A0002DE9FF5F1A48016841F01F0101601948FC
:1002B0004FF05531016018484FF0000101601748B8
:1002C0004FF00001016016484FF000010160154831
:1002D0004FF05531016014484FF05531016013481B
:1002E0004FF05531016012484FF055310160FFF772
:1002F00083FFFFF7C7FFBDE8FF9F000018E000E0A5
:1003000000380240003C024014E000E010E000E051
:100310003038024000000240000402400008024061
:10032000000C024008000240080402400808024095
:100330000C0402402DE9F85FC44B4FF4806501FBCB
:1003400005F52B441C6824FA02F06FF35F00BDE84A
:10035000F89F2DE9FC5FBD4B4FF4806501FB05F56F
:100360002B441C684FEA04444FEA1444BDE8F89F4C
:100370002DE9F85FB64B4FF4806501FB05F52B4482
:100380001C6800FA02F044EA00041C60BDE8F89F13
:100390002DE9F85FAE4B4FF4806501FB05F52B446A
:1003A0001C6800FA02F080F0FF3004EA00041C60D0
:1003B000BDE8F89F07B5A6490A6822F480720A6072
:1003C00000F034F942F480720A6000F02FF94FF027
:1003D0003A0000F019F84FF0550000F034F84FF0F3
:1003E000360000F011F84FF0280000F02CF84FF024
:1003F000110000F009F800F019F94FF0290000F0A1
:1004000003F8BDE80740704706B591490A6822F431
:1004100000420A6022F480520A6042F480620A605C
:1004200022F0FF0200F0FF0042EA00020A6022F41C
:1004300000620A6042F400620A6042F400420A600C
:10044000BDE80640704706B581490A6822F40042BB
:100450000A6042F480520A6042F480620A6022F02C
:10046000FF0200F0FF0042EA00020A6022F400628C
:100470000A6042F400620A6042F400420A60BDE889
:10048000064070472DE9C0474FF000064FF4F07862
:100490004FF000074FF4A0794FF0000A00F002F887
:1004A000BDE8C0872DE9FF5F55464FF02A00FFF7F2
:1004B000ABFF4FEA1620FFF7C6FF304600F0FF0003
:1004C000FFF7C1FF4FEA1820FFF7BDFF404600F0DD
:1004D000FF00FFF7B8FF4FF02B00FFF795FF4FEA43
:1004E0001720FFF7B0FF384600F0FF00FFF7ABFF23
:1004F0004FEA1920FFF7A7FF484600F0FF00FFF77B
:10050000A2FF4FF02C00FFF77FFFA8EB060303F1DB
:100510000103A9EB070404F1010403FB04F34FEA10
:10052000152105F0FF020846FFF78DFF1046FFF783
:100530008AFF5B1EF7D1BDE8FF9F2DE9FF5FD61E46
:100540005F1E16F1070817F10309FFF7ABFF761CD2
:100550007F1E16F1050817F10509FFF7A3FF761CAA
:100560007F1E16F1030817F10709FFF79BFFBDE88F
:10057000FF9F2DE9F15F53F8044B53F8045B4FF0F4
:100580002A00FFF741FF4FEA11263046FFF75BFFD5
:1005900001F0FF00FFF757FF01EB0406A6F101068B
:1005A0004FEA1620FFF74FFF01EB0406A6F1010604
:1005B00006F0FF00FFF747FF4FF02B00FFF724FF87
:1005C0004FEA12263046FFF73EFF4FF0FF0606EADD
:1005D00002063046FFF737FF02EB0506A6F10106DB
:1005E0004FEA16263046FFF72EFF02EB0506A6F16E
:1005F00001064FF0FF0909EA0600FFF724FF4FF05C
:100600002C00FFF701FF04FB05F633F8020B4FEA5D
:10061000102100F0FF020846FFF715FF1046FFF714
:1006200012FF761EF1D1BDE8F15F704701B50948B0
:10063000401EFDD1BDE8014070470AB5B0FBF1F2A4
:1006400002FB01F3A0EB03000ABD00001000024012
:10065000140002406416260003B55B484FF01F01EA
:10066000016000F075F803BD03B557484CF614015E
:10067000016000F06DF803BD03B5534840F2B95175
:10068000016000F065F803BD03B54F484FF47841B1
:10069000016000F05DF803BD03B54B484FF6C07133
:1006A000016000F055F803BD03B547484FF64041DF
:1006B000016000F04DF803BD03B543484FF4F0610D
:1006C000016000F045F803BD03B53F484FF6FF71E8
:1006D000016000F03DF803BD03B53B484FF0000159
:1006E000016000F035F803BD03B53849086003BD6B
:1006F0002DE9FF5F35484FF0000101603448C0F834
:1007000000B03448C0F800C03348C0F800A0BDE8CD
:10071000FF9F2DE9FF5FDFF8B8A0DAF80060DFF88F
:10072000B4A0DAF8007006F1460807F14609DFF8D0
:10073000A8A0DAF800A0FFF7B5FEBDE8FF9F03B55B
:10074000FFF7E7FF2148016801F10101016003BDE6
:100750002DE9FF5F1C48D0F800A01D4800681D4926
:100760000968DFF86890D9F800502B464FF0640410
:10077000B3FBF4F606FB14334FF00A04B3FBF4F7B3
:1007800007FB1438642D0EDA0A2D03DA424600F016
:1007900019F815E03A4600F015F800F11900424644
:1007A00000F010F80CE0324600F00CF800F11900EF
:1007B0003A4600F007F800F11900424600F002F84E
:1007C000BDE8FF9F0AE000005C0000205800002008
:1007D0005000002054000020600000202DE9FF5F41
:1007E0005FF81CA0DAF800A083468C46002A00F0CF
:1007F0001A80012A00F05480022A5CD0032A00F0FB
:100800008D80042A00F0C180052A00F0DD80062AD0
:1008100000F00D81072A00F04781082A00F064816A
:10082000092A00F0A8810BF100060BF114080CF165
:1008300000070CF10609FFF735FE0BF100060BF17E
:1008400006080CF106070CF11809FFF72BFE0BF157
:1008500000060BF106080CF118070CF12809FFF748
:1008600021FE0BF100060BF114080CF122070CF12C
:100870002809FFF717FE0BF10E060BF114080CF117
:1008800018070CF12809FFF70DFE0BF10E060BF10E
:1008900014080CF106070CF11809FFF703FE9DE19F
:1008A0000BF10E060BF114080CF100070CF12809EE
:1008B000FFF7F8FD92E10BF100060BF114080CF1C3
:1008C00000070CF10609FFF7EDFD0BF10E060BF129
:1008D00014080CF106070CF11809FFF7E3FD0BF102
:1008E00000060BF114080CF112070CF11809FFF7C0
:1008F000D9FD0BF100060BF106080CF118070CF1FD
:100900002809FFF7CFFD0BF100060BF114080CF1DD
:1009100022070CF12809FFF7C5FD5FE102E00000A6
:100920005C0000200BF100060BF114080CF100072D
:100930000CF10609FFF7B6FD0BF10E060BF11408DA
:100940000CF106070CF11809FFF7ACFD0BF10006DE
:100950000BF114080CF112070CF11809FFF7A2FDB6
:100960000BF10E060BF114080CF118070CF1280915
:10097000FFF798FD0BF100060BF114080CF12207AC
:100980000CF12809FFF78EFD28E10BF100060BF1B1
:1009900006080CF100070CF11809FFF783FD0BF1B5
:1009A0000E060BF114080CF100070CF12809FFF7F3
:1009B00079FD0BF100060BF114080CF112070CF194
:1009C0001809FFF76FFD09E10BF100060BF11408A0
:1009D0000CF100070CF10609FFF764FD0BF10006AE
:1009E0000BF106080CF106070CF11809FFF75AFD88
:1009F0000BF100060BF114080CF112070CF11809A9
:100A0000FFF750FD0BF10E060BF114080CF118075F
:100A10000CF12809FFF746FD0BF100060BF1140855
:100A20000CF122070CF12809FFF73CFDD6E00BF191
:100A300000060BF114080CF100070CF10609FFF792
:100A400031FD0BF100060BF106080CF106070CF165
:100A50001809FFF727FD0BF100060BF114080CF144
:100A600012070CF11809FFF71DFD0BF100060BF141
:100A700006080CF118070CF12809FFF713FD0BF11C
:100A80000E060BF114080CF118070CF12809FFF7FA
:100A900009FD0BF100060BF114080CF122070CF113
:100AA0002809FFF7FFFC99E0FFE70BF100060BF1C7
:100AB00014080CF100070CF10609FFF7F3FC0BF129
:100AC0000E060BF114080CF106070CF11809FFF7DC
:100AD000E9FC0BF10E060BF114080CF118070CF1F0
:100AE0002809FFF7DFFC79E00BF100060BF1140891
:100AF0000CF100070CF10609FFF7D4FC0BF100061E
:100B00000BF106080CF106070CF11809FFF7CAFCF7
:100B10000BF10E060BF114080CF106070CF1180985
:100B2000FFF7C0FC0BF100060BF114080CF11207E3
:100B30000CF11809FFF7B6FC0BF100060BF10608E3
:100B40000CF118070CF12809FFF7ACFC0BF10E06AD
:100B50000BF114080CF118070CF12809FFF7A2FC9F
:100B60000BF100060BF114080CF122070CF1280917
:100B7000FFF798FC32E00BF100060BF114080CF1C2
:100B800000070CF10609FFF78DFC0BF100060BF1D5
:100B900006080CF106070CF11809FFF783FC0BF1AE
:100BA0000E060BF114080CF106070CF12809FFF7EB
:100BB00079FC0BF100060BF114080CF112070CF193
:100BC0001809FFF76FFC0BF100060BF114080CF18C
:100BD00022070CF12809FFF765FCFFE7BDE8FF9F3E
:100BE000FFE72DE9FF5F4FF0000A4FF000064FF0DE
:100BF00000074FF4F0784FF4A079FFF753FC4FF65D
:100C0000FF7A4FF04A064FF054084FF08C074FF030
:100C10009C09FFF747FC4FF6FF7A4FF05E064FF056
:100C200068084FF08C074FF09C09FFF73BFC4FF62C
:100C3000FF7A4FF054064FF05E084FF09C074FF0DC
:100C4000B409FFF72FFC4FF6FF7A4FF072064FF012
:100C500086084FF08C074FF09409FFF723FC4FF6FE
:100C6000FF7A4FF072064FF077084FF094074FF07D
:100C7000AC09FFF717FC4FF6FF7A4FF081064FF0F3
:100C800086084FF094074FF0AC09FFF70BFC4FF6C6
:100C9000FF7A4FF072064FF086084FF0AC074FF026
:100CA000B409FFF7FFFB4FF6FF7A4FF090064FF0C5
:100CB0009A084FF08C074FF0AC09FFF7F3FB4FF6A3
:100CC000FF7A4FF09A064FF0AE084FF0AC074FF0A6
:100CD000B409FFF7E7FB4FF6FF7A4FF0AE064FF08F
:100CE000B8084FF08C074FF0AC09FFF7DBFB4FF66D
:100CF000FF7A4FF0C2064FF0CC084FF08C074FF050
:100D0000B409FFF7CFFB4FF6FF7A4FF0CC064FF058
:100D1000D6084FF08C074FF09409FFF7C3FB4FF64E
:100D2000FF7A4FF0D6064FF0E0084FF094074FF0EF
:100D30009C09FFF7B7FB4FF6FF7A4FF0CC064FF058
:100D4000D6084FF09C074FF0A409FFF7ABFB4FF616
:100D5000FF7A4FF0D6064FF0E0084FF0A4074FF0AF
:100D6000B409FFF79FFB4FF6FF7A4FF0F70640F20A
:100D70000B184FF08C074FF09409FFF793FB4FF6D9
:100D8000FF7A4FF0F70640F201184FF094074FF04A
:100D90009C09FFF787FB4FF6FF7A4FF0F70640F20A
:100DA0000B184FF09C074FF0A409FFF77BFB4FF6A1
:100DB000FF7A40F2011640F20B184FF0A4074FF0F3
:100DC000AC09FFF76FFB4FF6FF7A4FF0F70640F2E2
:100DD0000B184FF0AC074FF0B409FFF763FB4FF669
:100DE000FF7A40F2151640F229184FF08C074FF0A9
:100DF0009409FFF757FB4FF6FF7A40F2151640F2C1
:100E00001F184FF094074FF0AC09FFF74BFB4FF65C
:100E1000FF7A40F2151640F229184FF0AC074FF058
:100E2000B409FFF73FFB4FF6FF7A40F2331640F26A
:100E300047184FF08C074FF09409FFF733FB4FF63C
:100E4000FF7A40F233164FF49C784FF094074FF03E
:100E5000AC09FFF727FB4FF6FF7A4FF4A17640F27B
:100E600047184FF094074FF0AC09FFF71BFB4FF604
:100E7000FF7A40F2331640F247184FF0AC074FF0BC
:100E8000B409FFF70FFB4FF6FF7A40F2511640F21C
:100E90005B184FF08C074FF0B409FFF703FB4FF6D8
:100EA000FF7A40F25B1640F265184FF08C074FF066
:100EB0009409FFF7F7FA4FF6FF7A40F2651640F211
:100EC0006F184FF094074FF09C09FFF7EBFA4FF6BD
:100ED000FF7A40F25B1640F265184FF09C074FF026
:100EE000A409FFF7DFFA4FF6FF7A40F2651640F2E9
:100EF0006F184FF0A4074FF0B409FFF7D3FA4FF67D
:100F0000FF7A40F2791640F283184FF08C074FF0C9
:100F1000B409FFF7C7FA4FF6FF7A40F2831640F2A2
:100F200097184FF08C074FF09409FFF7BBFA4FF674
:100F3000FF7A40F2831640F28D184FF09C074FF075
:100F4000A409FFF7AFFA4FF6FF7A40F2831640F29A
:100F500097184FF0AC074FF0B409FFF7A3FABDE8BC
:100F6000FF9F00002DE9FF5F4FF0000A4FF00006E1
:100F70004FF4F0784FF000074FF4A079FFF792FAA2
:100F80004FF6FF7A4FF066064FF06D084FF08D0771
:100F90004FF09C09FFF786FA4FF6FF7A4FF06E0686
:100FA0004FF085084FF09D074FF0A409FFF77AFA3C
:100FB0004FF6FF7A4FF086064FF08D084FF08D0701
:100FC0004FF09C09FFF76EFA4FF6FF7A4FF0760666
:100FD0004FF07D084FF0A5074FF0B409FFF762FA14
:100FE0004FF6FF7A4FF096064FF09D084FF09507A9
:100FF0004FF0AC09FFF756FA4FF6FF7A4FF09E0616
:101000004FF0AD084FF08D074FF09409FFF74AFA03
:101010004FF6FF7A4FF0AE064FF0B5084FF0950748
:101020004FF0AC09FFF73EFA4FF6FF7A4FF09E06FD
:101030004FF0AD084FF0AD074FF0B409FFF732FAAB
:101040004FF6FF7A4FF0BE064FF0C5084FF08D0700
:101050004FF0AC09FFF726FA4FF6FF7A4FF0C606BD
:101060004FF0D5084FF0AD074FF0B409FFF71AFA6B
:101070004FF6FF7A4FF0D6064FF0DD084FF08D07A0
:101080004FF0AC09FFF70EFA4FF6FF7A4FF0F60675
:101090004FF0FD084FF08D074FF0B409FFF702FA4B
:1010A0004FF6FF7A4FF0FE0640F205184FF0A50705
:1010B0004FF0AC09FFF7F6F94FF6FF7A4FF483765D
:1010C00040F20D184FF09D074FF0A409FFF7EAF921
:1010D0004FF6FF7A4FF4877640F215184FF0A507C8
:1010E0004FF0AC09FFF7DEF94FF6FF7A4FF48B763D
:1010F00040F21D184FF08D074FF0B409FFF7D2F9F9
:101100004FF6FF7A4FF4937640F245184FF08D0773
:101110004FF09409FFF7C6F94FF6FF7A4FF4937634
:1011200040F245184FF0AD074FF0B409FFF7BAF998
:101130004FF6FF7A4FF4997640F239184FF0950741
:101140004FF0AC09FFF7AEF94FF6FF7A4FF4A776F0
:1011500040F255184FF08D074FF0B409FFF7A2F990
:101160004FF6FF7A4FF4AB7640F25D184FF09507DB
:101170004FF09C09FFF796F94FF6FF7A4FF4AF76E0
:1011800040F265184FF09D074FF0A409FFF78AF968
:101190004FF6FF7A4FF4B37640F26D184FF08D079B
:1011A0004FF0B409FFF77EF9BDE8FF9F2DE9FF5F1F
:1011B0004FF0000A4FF000064FF4F0784FF00007B0
:1011C0004FF4A079FFF76EF94FF6FF7A4FF04D0616
:1011D0004FF05C084FF085074FF08C09FFF762F97C
:1011E0004FF6FF7A4FF045064FF04C084FF08D0751
:1011F0004FF0A409FFF756F94FF6FF7A4FF04D066E
:101200004FF05C084FF0A5074FF0AC09FFF74AF923
:101210004FF6FF7A4FF05D064FF064084FF09507E8
:101220004FF0A409FFF73EF94FF6FF7A4FF055064D
:101230004FF05C084FF095074FF09C09FFF732F92B
:101240004FF6FF7A4FF06D064FF074084FF08D07A0
:101250004FF0AC09FFF726F94FF6FF7A4FF075060D
:101260004FF084084FF085074FF08C09FFF71AF90B
:101270004FF6FF7A4FF085064FF08C084FF08D0740
:101280004FF0AC09FFF70EF94FF6FF7A4FF07506F5
:101290004FF084084FF095074FF09C09FFF702F9D3
:1012A0004FF6FF7A4FF095064FF09C084FF08507F8
:1012B0004FF0AC09FFF7F6F84FF6FF7A4FF09D06B6
:1012C0004FF0A4084FF08D074FF09409FFF7EAF8AC
:1012D0004FF6FF7A4FF0A5064FF0AC084FF0950798
:1012E0004FF09C09FFF7DEF84FF6FF7A4FF0AD069E
:1012F0004FF0B4084FF08D074FF09409FFF7D2F884
:101300004FF6FF7A4FF0B5064FF0BC084FF0850757
:101310004FF0AC09FFF7C6F84FF6FF7A4FF0C5065D
:101320004FF0E4084FF085074FF08C09FFF7BAF84B
:101330004FF6FF7A4FF0C5064FF0CC084FF0850707
:101340004FF0AC09FFF7AEF84FF6FF7A4FF0CD063D
:101350004FF0DC084FF095074FF09C09FFF7A2F81B
:101360004FF6FF7A4FF0CD064FF0E4084FF0A50797
:101370004FF0AC09FFF796F84FF6FF7A4FF0FD06F5
:101380004FF482784FF08D074FF0A409FFF78AF8E9
:101390004FF6FF7A40F205164FF48A784FF0A50712
:1013A0004FF0AC09FFF77EF84FF6FF7A40F21516C2
:1013B0004FF48E784FF08D074FF0A409FFF772F8C5
:1013C0004FF6FF7A40F205164FF48A784FF0850702
:1013D0004FF08C09FFF766F84FF6FF7A40F22516BA
:1013E0004FF496784FF085074FF09409FFF75AF8BD
:1013F0004FF6FF7A40F22D164FF49A784FF095078A
:101400004FF0A409FFF74EF84FF6FF7A40F2351679
:101410004FF49E784FF0A5074FF0AC09FFF742F864
:101420004FF6FF7A40F23D164FF4A2784FF0950741
:101430004FF0A409FFF736F84FF6FF7A40F2451651
:101440004FF4A6784FF085074FF09409FFF72AF87C
:101450004FF6FF7A40F255164FF4AE784FF08507FD
:101460004FF0AC09FFF71EF84FF6FF7A40F25D1619
:101470004FF4BA784FF085074FF08C09FFF712F858
:101480004FF6FF7A40F25D164FF4B6784FF09507AD
:101490004FF09C09FFF706F84FF6FF7A40F25D1611
:1014A0004FF4BA784FF0A5074FF0AC09FEF7FAFFFA
:1014B0004FF6FF7A40F27D164FF4C2784FF0850761
:1014C0004FF0AC09FEF7EEFF4FF6FF7A40F28516BB
:1014D0004FF4CA784FF085074FF08C09FEF7E2FF12
:1014E0004FF6FF7A40F295164FF4CE784FF08D0705
:1014F0004FF09409FEF7D6FF4FF6FF7A40F28516BB
:101500004FF4CA784FF095074FF09C09FEF7CAFFD9
:101510004FF6FF7A40F28D164FF4CA784FF09D07D0
:101520004FF0A409FEF7BEFF4FF6FF7A40F2951682
:101530004FF4CE784FF0A5074FF0AC09FEF7B2FF9D
:10154000BDE8FF9F2DE9FF5F4FF0000A4FF0000656
:101550004FF4F0784FF000074FF4A079FEF7A2FFA8
:101560004FF6FF7A4FF066064FF06B084FF08D078D
:101570004FF0B409FEF796FF4FF6FF7A4FF07D0665
:101580004FF082084FF08D074FF0B409FEF78AFF45
:101590004FF6FF7A4FF066064FF082084FF08D0746
:1015A0004FF09209FEF77EFF4FF6FF7A4FF0660686
:1015B0004FF082084FF0AF074FF0B409FEF772FF0B
:1015C0004FF6FF7A4FF08C064FF091084FF08D07E1
:1015D0004FF0B409FEF766FF4FF6FF7A4FF0910621
:1015E0004FF096084FF092074FF09609FEF75AFF1A
:1015F0004FF6FF7A4FF096064FF09B084FF0960794
:101600004FF09B09FEF74EFF4FF6FF7A4FF09B0617
:101610004FF0A0084FF09B074FF0A009FEF742FFE4
:101620004FF6FF7A4FF0A0064FF0A5084FF0A00745
:101630004FF0A509FEF736FF4FF6FF7A4FF0A506EB
:101640004FF0AA084FF0A5074FF0AA09FEF72AFFAE
:101650004FF6FF7A4FF0AA064FF0AF084FF0AA07F7
:101660004FF0AF09FEF71EFF4FF6FF7A4FF0AF06BF
:101670004FF0B4084FF08D074FF0B409FEF712FF9A
:101680004FF6FF7A4FF0BE064FF0C3084FF08D07BC
:101690004FF0B409FEF706FF4FF6FF7A4FF0BE0693
:1016A0004FF0DC084FF08C074FF09109FEF7FAFE7F
:1016B0004FF6FF7A4FF0BE064FF0DC084FF0AF0751
:1016C0004FF0B409FEF7EEFE4FF6FF7A4FF0BE067C
:1016D0004FF0DC084FF09D074FF0A209FEF7E2FE45
:1016E0004FF6FF7A4FF0F6064FF0FD084FF08D07EA
:1016F0004FF0B409FEF7D6FE4FF6FF7A4FF0FE0624
:1017000040F205184FF0A5074FF0AC09FEF7CAFEEE
:101710004FF6FF7A4FF4837640F20D184FF09D0795
:101720004FF0A409FEF7BEFE4FF6FF7A4FF487761E
:1017300040F215184FF0A5074FF0AC09FEF7B2FEC6
:101740004FF6FF7A4FF48B7640F21D184FF08D075D
:101750004FF0B409FEF7A6FE4FF6FF7A4FF49376EA
:1017600040F245184FF08D074FF09409FEF79AFEAE
:101770004FF6FF7A4FF4937640F245184FF0AD07DD
:101780004FF0B409FEF78EFE4FF6FF7A4FF49976CC
:1017900040F239184FF095074FF0AC09FEF782FE82
:1017A0004FF6FF7A4FF4A77640F255184FF08D07A9
:1017B0004FF0B409FEF776FE4FF6FF7A4FF4AB76A2
:1017C00040F25D184FF095074FF09C09FEF76AFE56
:1017D0004FF6FF7A4FF4AF7640F265184FF09D0751
:1017E0004FF0A409FEF75EFE4FF6FF7A4FF4B37692
:1017F00040F26D184FF08D074FF0B409FEF752FE1E
:10180000BDE8FF9F2DE9FF5F4FF0000A4FF0000693
:101810004FF4F0784FF000074FF4A079FEF742FE46
:101820004FF6FF7A4FF066064FF089084FF08D07AC
:101830004FF09109FEF736FE4FF6FF7A4FF075062E
:101840004FF07A084FF08D074FF0B409FEF72AFEEB
:101850004FF6FF7A4FF08E064FF093084FF08D074A
:101860004FF0B409FEF71EFE4FF6FF7A4FF09D06CB
:101870004FF0A2084FF08D074FF0B409FEF712FEAB
:101880004FF6FF7A4FF0AC064FF0B1084FF08D07DE
:101890004FF0B409FEF706FE4FF6FF7A4FF08E06C2
:1018A0004FF0AF084FF0AF074FF0B409FEF7FAFD65
:1018B0004FF6FF7A4FF0BE064FF0C3084FF08D078A
:1018C0004FF0B409FEF7EEFD4FF6FF7A4FF0D20667
:1018D0004FF0D7084FF08D074FF0B409FEF7E2FD47
:1018E0004FF6FF7A4FF0BE064FF0D7084FF08D0746
:1018F0004FF09109FEF7D6FD4FF6FF7A4FF0BE0686
:101900004FF0D7084FF0AF074FF0B409FEF7CAFD0C
:101910004FF6FF7A4FF0F6064FF0FD084FF08D07B7
:101920004FF0B409FEF7BEFD4FF6FF7A4FF0FE060A
:1019300040F205184FF0A5074FF0AC09FEF7B2FDD5
:101940004FF6FF7A4FF4837640F20D184FF09D0763
:101950004FF0A409FEF7A6FD4FF6FF7A4FF4877605
:1019600040F215184FF0A5074FF0AC09FEF79AFDAD
:101970004FF6FF7A4FF48B7640F21D184FF08D072B
:101980004FF0B409FEF78EFD4FF6FF7A4FF49376D1
:1019900040F245184FF08D074FF09409FEF782FD95
:1019A0004FF6FF7A4FF4937640F245184FF0AD07AB
:1019B0004FF0B409FEF776FD4FF6FF7A4FF49976B3
:1019C00040F239184FF095074FF0AC09FEF76AFD69
:1019D0004FF6FF7A4FF4A77640F255184FF08D0777
:1019E0004FF0B409FEF75EFD4FF6FF7A4FF4AB7689
:1019F00040F25D184FF095074FF09C09FEF752FD3D
:101A00004FF6FF7A4FF4AF7640F265184FF09D071E
:101A10004FF0A409FEF746FD4FF6FF7A4FF4B37678
:101A200040F26D184FF08D074FF0B409FEF73AFD04
:101A3000BDE8FF9F2DE9FF5FFEF724FD4FF6FF7A1B
:101A40004FF073064FF07D084FF073074FF0CD094C
:101A5000FEF728FD4FF073064FF091084FF0730723
:101A60004FF07D09FEF71EFD4FF087064FF09B08F3
:101A70004FF07D074FF08709FEF714FD4FF09106F8
:101A80004FF0A5084FF087074FF09109FEF70AFDC8
:101A90004FF09B064FF0A5084FF087074FF0B909AC
:101AA000FEF700FD4FF073064FF091084FF0C307AB
:101AB0004FF0CD09FEF7F6FC4FF087064FF09B087C
:101AC0004FF0B9074FF0C309FEF7ECFC4FF0910659
:101AD0004FF0A5084FF0AF074FF0B909FEF7E2FC51
:101AE0004FF6FF7A4FF0AF064FF0B9084FF073078B
:101AF0004FF0CD09FEF7D6FC4FF0B9064FF0CD08F8
:101B00004FF073074FF07D09FEF7CCFC4FF0B9069C
:101B10004FF0CD084FF09B074FF0A509FEF7C2FC30
:101B20004FF0CD064FF0D7084FF07D074FF09B09DF
:101B3000FEF7B8FC4FF0CD064FF0D7084FF0A507E1
:101B40004FF0CD09FEF7AEFC4FF6FF7A4FF0E606F8
:101B50004FF0F0084FF07D074FF0CD09FEF7A2FCE3
:101B60004FF482764FF487784FF07D074FF0CD0920
:101B7000FEF798FC4FF0F0064FF482784FF07307B1
:101B80004FF07D09FEF78EFC4FF0F0064FF482789F
:101B90004FF0A0074FF0AA09FEF784FC4FF6FF7A3A
:101BA0004FF48C764FF491784FF073074FF0CD09D6
:101BB000FEF778FC4FF49B764FF4A0784FF0730754
:101BC0004FF0CD09FEF76EFC4FF4AA764FF4AF78D4
:101BD0004FF073074FF0CD09FEF764FC4FF48C769D
:101BE0004FF4AF784FF0C3074FF0CD09FEF75AFC22
:101BF000BDE8FF9F01B5E648401EFDD1BDE80140AC
:101C00007047FEF74DFBFEF7D5FB00F0DBFBFEF760
:101C10005BFD00F010F800F003F8FFF7EBFFF6E7CC
:101C20002DE9FF5F00F08AFBDA4D012D01D000F0B5
:101C30000AF9BDE8FF9F2DE9FF5F00F0A7FBD6483A
:101C4000016801F10101092908BF0021016001D1EA
:101C500000F04CF900F002F8BDE8FF9F2DE9FF5FAE
:101C6000DFF83893CE4C4FF0000A4FF6FF7CBAF104
:101C7000100F00F0E68004F1040409F104090AF1F0
:101C8000010A6545F3D0A9F10409A4F10404D9F8C7
:101C90000010D4F800804FEA18124FF0230C02FB1A
:101CA0000CF202F10F024FF6FF7C0B464FF00F07CC
:101CB0004FF0000C08EA0706002E08BF03F10A0CDB
:101CC000012E08BF03F1140C022E08BF03F10F0C04
:101CD000032E08BF03F11E0C4FF0C807A7F10A0737
:101CE000BC454FF00F074FF6FF7C04D004F104040D
:101CF00009F10409BBE72DE9A01E4FF0000A4FF0DF
:101D000000054FF000074FF0000B4FF0000C4FF0B4
:101D10000009A44D2D6805F12D0A002E04BF02F123
:101D20000907A2F1090B012E04BF02F11007A2F16D
:101D3000100B022E04BF02F10907A2F1090B032EBA
:101D400004BF02F11007A2F1100BAF42A8BF0CF1C3
:101D5000050C5745D8BF0CF1050CAB45A8BF09F1E0
:101D60000509D345D8BF09F105094FF0000BBCF1B7
:101D70000A0F08BF0BF1010BB9F10A0F08BF0BF1F5
:101D8000010BBBF1010FBDE8A01E42DB002E08BF16
:101D900000F04DF908BFFEF7D2FC1CD0012E08BFA1
:101DA00000F020FA08BFFEF7CAFC14D0022E08BFCC
:101DB00000F0B1F908BFFEF7C2FC0CD0032E08BF3B
:101DC00000F060FA08BF00F0DEF83AD004F1040435
:101DD00009F104094BE780B4002E08BF00F027F991
:101DE000012E08BF00F0FEF9022E08BF00F093F9A3
:101DF000032E08BF00F074FA4FF6FF77C9F80070A1
:101E00004FF0FF07276004F1040409F1040980BCC6
:101E10002DE72DE9A0044FF000054FF000074FF02B
:101E2000000A032E04D0604D2F6807F101072F60D0
:101E30000A2F08BF00F0A7F800F00380BDE8A00457
:101E4000C9E7BDE8FF9F2DE9FF5F4FF0000CDFF809
:101E50004C91534C4FF6FF72BCF1100F44D059F81F
:101E6000045B54F8047B0CF1010C9542F2D0A9F10B
:101E70000409A4F104044FF00F0A07EA0A064FEA26
:101E800017174FF0230B0BFB07F202F10F022B4643
:101E9000002E08BF00F0CBF8022E08BF00F03BF97F
:101EA000012E08BF00F09EF9032E08BF00F018FABB
:101EB000DFF8F8A0DAF800A05344C9F80030002E8B
:101EC00008BF00F085F8012E08BF00F069F9022E66
:101ED00008BF00F0DBF8032E08BF00F0A5F909F1F8
:101EE000040904F10404B5E7BDE8FF9F2DE9FF5F95
:101EF000DFF8A890DFF8A8804FF000064FF6FF72D9
:101F0000102E3ED059F8045B08F1040806F10106D2
:101F10009542F5D1A9F10409A8F10408FEF768F982
:101F20004FF00C01FEF789FB00F1010083464FEAF8
:101F30000B1B4FF0230AFEF75BF94FF00401FEF78D
:101F40007CFB064646EA0B0BC8F800B04FEA1B1BA9
:101F50000AFB0BFA0AF10F0A52464FF00003C9F8C8
:101F60000030002E08BF00F033F8012E08BF00F04B
:101F700017F9022E08BF00F089F8032E08BF00F001
:101F800053F9BDE8FF9FFFF711F9FCE7BDE8FF9F9C
:101F900024B60D00100300207802002084020020E7
:101FA000C4020020080300201403002004030020C2
:101FB0002DE9FF5F4FF000064FF000074FF4F07877
:101FC0004FF4A07940F2B95AFEF76CFABDE8FF9FD2
:101FD0002DE9FF5F4FF6C07A561F16F10A081F1C45
:101FE00017F10209FEF75EFA4FF6C07A361F18F1B4
:101FF000040819F1010717F10F09FEF753FA4FF61C
:10200000C07AB61DB8F1060819F1010717F10309E6
:10201000FEF748FA4FF6C07AF61CB8F1030819F13A
:10202000010717F10209FEF73DFABDE8FF9F2DE910
:10203000FF5F40F2B95A561F16F10A081F1C17F12C
:102040000209FEF72FFA40F2B95A361F18F10408B8
:1020500019F1010717F10F09FEF724FA40F2B95AF6
:10206000B61DB8F1060819F1010717F10309FEF7CB
:1020700019FA40F2B95AF61CB8F1030819F1010730
:1020800017F10209FEF70EFABDE8FF9F2DE9FF5F89
:102090004FF4F06A561E16F102081F1C17F10409CE
:1020A000FEF700FA4FF4F06A361F16F10A0819F12C
:1020B000010717F10209FEF7F5F94FF4784A361FC8
:1020C00018F1040819F1010717F10309FEF7EAF9FD
:1020D0004FF4784AF61CB8F1030819F1010717F11B
:1020E0000309FEF7DFF94FF4784AF61CB8F103084C
:1020F00019F1010717F10209FEF7D4F94FF4784AF4
:10210000B61CB8F1020819F1010717F10209FEF730
:10211000C9F9BDE8FF9F2DE9FF5F40F2B95A561E8D
:1021200016F102081F1C17F10409FEF7BBF940F273
:10213000B95A361F16F10A0819F1010717F10209F9
:10214000FEF7B0F940F2B95A361F18F1040819F138
:10215000010717F10309FEF7A5F940F2B95AF61C79
:10216000B8F1030819F1010717F10309FEF79AF90D
:1021700040F2B95AF61CB8F1030819F1010717F13A
:102180000209FEF78FF940F2B95AB61CB8F10208FD
:1021900019F1010717F10209FEF784F9BDE8FF9F65
:1021A0002DE9FF5F4FF4F06A961F16F10C085F1FD0
:1021B00017F10809FEF776F94FF6404A0A3E18F182
:1021C0000A080A3717F11409FEF76CF94FF6404A6E
:1021D000361DB8F10408143717F10509FEF762F946
:1021E000BDE8FF9F2DE9FF5F40F2B95A961F16F137
:1021F0000C085F1F17F10809FEF754F940F2B95AAD
:102200000A3E18F10A080A3717F11409FEF74AF9CD
:1022100040F2B95A361DB8F10408143717F1050910
:10222000FEF740F9BDE8FF9F2DE9FF5F4FF6C07A4A
:10223000961E16F102081F1C17F10609FEF732F967
:102240004FF0000A761F18F10508FF1D17F103096A
:10225000FEF728F94FF0000A0A3E18F10A0819F1B2
:10226000000719F11409FEF71DF94FF0000A361D99
:10227000B8F1040819F1000719F10309FEF712F982
:10228000BDE8FF9F2DE9FF5F4FF0000A961E16F193
:1022900002081F1C17F10609FEF704F94FF0000AA7
:1022A000761F18F10508FF1D17F10309FEF7FAF86C
:1022B0004FF0000A0A3E18F10A0819F1000719F157
:1022C0001409FEF7EFF84FF0000A361DB8F10408C4
:1022D00019F1000719F10309FEF7E4F8BDE8FF9FC3
:1022E0002DE9FF5F40F2B95A961E16F102081F1C35
:1022F00017F10609FEF7D6F840F2B95A761F18F121
:102300000508FF1D17F10309FEF7CCF840F2B95A92
:102310000A3E18F10A0819F1000719F11409FEF72D
:10232000C1F840F2B95A361DB8F1040819F1000796
:1023300019F10309FEF7B6F8BDE8FF9F2DE9FF5F2D
:10234000454801684548066806F12D084FF0C80762
:1023500007F10A094FF6FF7A002911D040F2B95A65
:10236000FEF7A0F84FF6FF7A012903D1A6F11E0669
:1023700006F12D08022903D106F11E0606F12D08EB
:10238000FEF790F835480660BDE8FF9F2DE9FF5F36
:1023900032480168324802684FF0000312F4805F4F
:1023A00007D012F4005F00D008E01E2928BF0123E7
:1023B00004E040F295129142B8BF02232648036020
:1023C000BDE8FF9F2DE9FF5F4FF4D27B4FF4827C85
:1023D00040F2B95AFEF78CF9FFF7EAFD21484FF0B9
:1023E00000064FF6FF7140F8041B06F10106102E9F
:1023F000F7D11D484FF000064FF6FF7140F8041B5F
:1024000006F10106102EF7D14FF0050117480160C3
:102410004FF00001164801600F484FF000010160C5
:10242000144801604FF032010C4801604FF0320651
:102430004FF0C8074FF05F084FF0D2094FF6FF7A10
:10244000FEF730F80C4801680C4901600C484FF069
:1024500000010160BDE8FF9F0C030020080300207D
:102460001004024084020020C40200200403002063
:1024700014030020AD1100087C0200204E61BC0056
:10248000780200202DE9FF5F2948016801F1010170
:1024900001604FF4C87B4FF0140C4FF0000AFEF7B8
:1024A00027F9FEF736F922480068FEF71DF9BDE866
:1024B000FF9F2DE9FF5F1F480168A1F10A0101603C
:1024C000002940F34F824FF4C87B4FF4827C4FF0D9
:1024D000000AFEF70DF9FEF71CF916480068FEF732
:1024E00003F9BDE8FF9F2DE9FF5F4FF4C87B4FF074
:1024F000140C4FF0000AFEF7FBF80D480068FEF7D9
:10250000F3F8FEF7E1F8BDE8FF9F2DE9FF5F09480A
:102510004FF4C87B4FF4827C4FF0000AFEF7E8F8D6
:1025200004480068FEF7E0F8FEF7AEF8BDE8FF9F4C
:1025300098090020900900204FF4D27B4FF0140C32
:102540004FF0000AFEF7D4F8FDF79CFF00F0D1FB36
:10255000FFF7C9FFFFF7D9FF00F003F800F02AF8F2
:10256000F6E72DE9FF5F00F02DF84FF00002F84884
:10257000006803464FF06401FEF75FF8002808BFCB
:102580000122F34803F1010303604FF00003FDF75C
:102590002FFE4FF00501FEF750F8002808BF012379
:1025A00002EA0304012C08BF00F000F900F044F92E
:1025B000BDE8FF9F2DE9FF5F00F094F800F08DFB70
:1025C000BDE8FF9F2DE9FF5FE248E34902680B6821
:1025D000002A4FF0E10B4FF0640C4FF0000A18BFD7
:1025E00000F060F8012A4FF0E10B4FF0B90C4FF00A
:1025F000000A18BF00F056F8022A4FF0B40B4FF053
:10260000910C4FF0000A18BF00F05CF8032A4FF459
:10261000877B4FF0910C4FF0000A18BF00F052F882
:1026200013F4804F04BF002404600268002A01BF35
:102630004FF0E10B4FF0640C4FF4F06A00F032F809
:1026400013F4004F04BF012404600268012A01BF93
:102650004FF0E10B4FF0B90C4FF4F06A00F022F8A4
:1026600013F4005F04BF022404600268022A01BF61
:102670004FF0B40B4FF0910C4FF4F06A00F022F8D9
:1026800013F4805F04BF032404600268032A01BFBF
:102690004FF4877B4FF0910C4FF4F06A00F012F882
:1026A000BDE8FF9F2DE9FF5F5A466346A2F11E0673
:1026B00006F13C08A3F1020707F10409FDF7F2FE59
:1026C000BDE8FF9F2DE9FF5F5A466346A2F102066F
:1026D00006F10408A3F11E0707F13C09FDF7E2FE2D
:1026E000BDE8FF9F2DE9FF5FDFF870929C4C4FF033
:1026F00000064FF6FF71082E56DA06F10106D9F8EA
:10270000007020688F4204D159F8047B54F8040B00
:10271000F1E74FF0000A2568D9F80070002D05D0C8
:10272000012D22D0022D12D0032D2CD04FF0D00B32
:102730004FF4A07CACEB070CACF1030C07F10307E2
:102740004FF6FF7A00F09AF9C9F80070DCE74FF015
:10275000D00BBC460CF1030C07F103074FF6FF7AD0
:1027600000F0CCF9C9F80070CEE7BB464FF0780C0A
:102770000BF1030B07F103074FF6FF7A00F0FCF8AB
:10278000C9F80070C0E74FF4F07B4FF0780CABEB6A
:10279000070BABF1030B07F103074FF6FF7A00F0CD
:1027A0002CF9C9F80070AFE7BDE8FF9F2DE9FF5F86
:1027B000DFF8A8916A4C4FF000064FF6FF72082E22
:1027C00038DA06F10106D9F800502068AA4204D090
:1027D00059F8045B54F8040BF1E7FDF709FD4FF0DD
:1027E0000401FDF72AFF4FF000015C4B5C4D4FF0F8
:1027F00008064FF6FF77002E17DDA6F10106D3F885
:102800000080D5F800B0B8450AD0834508D1884586
:10281000ACBFA8EB010AA1EB080ABAF1460F09DD2B
:1028200053F8048B55F804BBE5E720604FF0000037
:10283000C9F80000BDE8FF9F2DE9FF5FDFF81C919C
:10284000474C4FF000064FF6FF71082E80F2928041
:1028500006F10106D9F8007020688F4204D159F8BA
:10286000047B54F8040BF0E7D9F800704FF0000A2D
:10287000256838480068002D06D0012D31D0022D82
:1028800042D0032D17D070E04FF0000A4FF0D00B6C
:102890004FF4A07CACEB070C00F0F0F8E3464FF0EF
:1028A000720303F14603012804BF4FF0010C0A3301
:1028B0009B453CDD59E04FF0000A4FF4F07B4FF0B0
:1028C000780CABEB070B00F098F84FF0BD0303F169
:1028D0004603032804BF4FF0010C0A339B4526DD55
:1028E00043E04FF0000ABB464FF0780C00F044F88C
:1028F0004FF0BD03A3F14603022804BF4FF0010CC3
:102900000A3B9F4213DA30E04FF0000A4FF0D00B41
:10291000BC4600F0F3F84FF07203A3F14603002821
:1029200004BF4FF0010C0A3B9F4200DA1DE04FF656
:10293000FF77C9F800704FF000072760BCF1010F66
:1029400008BFFFF79FFD18BFFFF7B3FD0DE00000C4
:10295000E00900209C09002010040240A00900208A
:10296000C0090020FEF722FCFCE709F1040904F18C
:1029700004046AE7BDE8FF9F2DE9FF5F5A466346FE
:10298000164603F10A0702F1370803F11909FDF7AA
:1029900089FD02F1370603F10F0702F13C0803F14C
:1029A0001409FDF77FFD02F1280603F1050702F186
:1029B000320803F10A09FDF775FD02F1280603F15B
:1029C000190702F1320803F11E09FDF76BFD02F150
:1029D000280603F1000702F12D0803F10509FDF7B0
:1029E00061FD02F1280603F11E0702F12D0803F133
:1029F0002309FDF757FDBDE8FF9F2DE9FF5F5A460C
:102A0000634602F1050603F10A0702F13C0803F1EF
:102A10001909FDF747FD164603F10F0702F10508F6
:102A200003F11409FDF73EFD02F10A0603F1050763
:102A300002F1140803F10A09FDF734FD02F10A0658
:102A400003F1190702F1140803F11E09FDF72AFD2D
:102A500002F10F0603F1000702F1140803F1050962
:102A6000FDF720FD02F10F0603F11E0702F1140825
:102A700003F12309FDF716FDBDE8FF9F2DE9FF5F78
:102A80005A46634602F10A0603F1050702F11908E6
:102A900003F13C09FDF706FD02F10F061F4602F1A6
:102AA000140803F10509FDF7FDFC02F1050603F129
:102AB0000A0702F10A0803F11409FDF7F3FC02F119
:102AC000190603F10A0702F11E0803F11409FDF7C4
:102AD000E9FC164603F10F0702F1050803F114099A
:102AE000FDF7E0FC02F11E0603F10F0702F12308D7
:102AF00003F11409FDF7D6FCBDE8FF9F2DE9FF5F48
:102B00005A46634602F10A061F4602F1190803F10C
:102B10003709FDF7C7FC02F10F0603F1370702F191
:102B2000140803F13C09FDF7BDFC02F1050603F1B1
:102B3000280702F10A0803F13209FDF7B3FC02F19C
:102B4000190603F1280702F11E0803F13209FDF707
:102B5000A9FC164603F1280702F1050803F12D0927
:102B6000FDF7A0FC02F11E0603F1280702F123087D
:102B700003F12D09FDF796FCBDE8FF9F2DE9FF5FEE
:102B80005A46634602F108061F4602F1180803F18F
:102B90000409FDF787FC02F124061F4602F1340800
:102BA00003F10409FDF77EFC02F1040603F10407BA
:102BB00002F11C0803F10809FDF774FC02F120067C
:102BC00003F1040702F1380803F10809FDF76AFC74
:102BD000164603F1080702F13C0803F10C09FDF762
:102BE00061FC164603F10C0702F13C0803F11009E1
:102BF000FDF758FC164603F1100702F13C0803F1FB
:102C00001609FDF74FFC164603F1160702F13C08C2
:102C100003F11A09FDF746FC164603F11A0702F103
:102C20003C0803F12009FDF73DFC02F1040603F125
:102C3000200702F1380803F12409FDF733FC02F103
:102C4000080603F1240702F1340803F12809FDF70F
:102C500029FC02F10C0603F1280702F1300803F108
:102C60002C09FDF71FFC02F1100603F12C0702F1FD
:102C70002C0803F13009FDF715FC02F1140603F1ED
:102C8000300702F1280803F13409FDF70BFC02F1CB
:102C9000180603F1340702F1240803F13809FDF79F
:102CA00001FC02F11C0603F1380702F1200803F1D0
:102CB0003C09FDF7F7FBBDE8FF9F2DE9FF5F4FF0F3
:102CC00000064FF000074FF4F0784FF4A0794FF072
:102CD000000AFDF7E7FBBDE8FF9F2DE9FF5F4FF41A
:102CE000784A4FF0C30B4FF0730CFFF747FFBDE876
:102CF000FF9F2DE9FF5FFFF7F0FF4FF000024FF657
:102D0000FF71184840F8041B02F10102082AF9DBA0
:102D100015484FF000024FF0000102F1010240F8A7
:102D2000041B082AF9DB4FF003004FF00A01016091
:102D30000E484FF0640101600D484FF00001016042
:102D40004FF0E10B4FF0640C4FF4F06AFFF7AAFC70
:102D500008484FF00001016007484FF00001016092
:102D6000BDE8FF9FA0090020C009002090090020B5
:102D70009C09002098090020E0090020FDF790FA46
:102D8000FDF718FB00F04EF800F056F8FEE701B52D
:102D90001A48401EFDD1BDE8014070470FB572B61C
:102DA0004FF0E0204FF0FF31C0F88012C0F88412DD
:102DB00013484FF0000101608160C1604FF4704121
:102DC00041611048816921F0F00141F010018161F9
:102DD0000B484FF02001C16001604FF0E0204FF040
:102DE000000180F807134FF40001C0F80011BFF391
:102DF0004F8FBFF36F8F62B60FBD00000024090034
:102E0000003C01400038014003B50548416911F01C
:102E1000200F04D04FF020014161FFF7AFFF03BD49
:102E2000003C014003B503484FF00001016000F091
:102E30008AF803BD48000020FFF7A9FF6148026837
:102E400012F4804F08BF00F019F812F4004F08BFC9
:102E500000F008F800F044F812F0080F08BF00F086
:102E600019F8E9E707B558480168584A116001F1B7
:102E700001010929A8BF0021016007BD07B552481B
:102E80000168524A1160A1F101010029B8BF08216F
:102E9000016007BD4C480168002908BF04F0E7FD48
:102EA000012908BF03F0C7FF022908BFFEF7A9FEEA
:102EB000032908BF03F083FC042908BF01F042FF87
:102EC000052908BF04F0E2FF062908BF04F0D6FA7E
:102ED000072908BF03F018FA082908BFFFF72CFBE1
:102EE0000FB53948016839480268052AB8BF4FF064
:102EF000000A052AA8BF4FF6FF7A104600F006F830
:102F00004FF4F06A084600F001F80FBD002800F009
:102F1000F184012800F0D985022800F06B8703288E
:102F200001F0DF80042801F01D85052800F05080A5
:102F3000062800F06081072800F06682082800F06B
:102F40008A83704778E72DE9FF5F01F057FB1E4841
:102F500001684FF00002092A32DA052AB8BF4FF0A3
:102F6000000A052AA8BF4FF6FF7A914208BF4FF426
:102F7000F06A002A08BF00F0BDFC012A08BF00F07B
:102F8000A4FD022A08BF00F035FF032A08BF01F0A4
:102F9000A8F8042A08BF01F0E5FC052A08BF00F0E4
:102FA00017F8062A08BF00F026F9072A08BF00F024
:102FB0002BFA082A08BF00F04EFB02F10102CAE713
:102FC000BDE8FF9F10040240480000204C00002094
:102FD0002DE9FE5FD2464FF48C764FF053074FF445
:102FE00090784FF05509FDF75DFA40F215164FF055
:102FF000560740F217184FF05809FDF753FA4FF4EF
:103000008C764FF0590740F21D184FF05B09FDF721
:1030100049FA4FF48F764FF05C074FF490784FF0F9
:103020005E09FDF73FFA40F215164FF05F0740F2D8
:103030001D184FF06109FDF735FA4FF492764FF005
:1030400053074FF493784FF05E09FDF72BFA40F2E7
:1030500027164FF05F074FF496784FF06109FDF7A0
:1030600021FA40F22D164FF0530740F22F184FF07F
:103070005E09FDF717FA40F233164FF0530740F29E
:1030800035184FF06109FDF70DFA4FF49B764FF0BC
:10309000530740F23B184FF05509FDF703FA4FF480
:1030A0009B764FF0590740F23B184FF05B09FDF754
:1030B000F9F94FF49B764FF05F0740F23B184FF061
:1030C0006109FDF7EFF94FF49E764FF056074FF484
:1030D0009F784FF05809FDF7E5F94FF49E764FF0D1
:1030E0005C074FF49F784FF05E09FDF7DBF94FF472
:1030F000A1764FF053074FF4A2784FF06109FDF726
:10310000D1F940F245164FF05C0740F247184FF0F6
:103110005E09FDF7C7F94FF4A4764FF059074FF455
:10312000A5784FF05B09FDF7BDF940F24B164FF063
:103130005C0740F24D184FF05E09FDF7B3F94FF40C
:10314000A7764FF053074FF4A8784FF06109FDF7C9
:10315000A9F94FF4AA764FF056074FF4AB784FF029
:103160006109FDF79FF940F257164FF053074FF4EE
:10317000AE784FF05509FDF795F940F257164FF02C
:1031800059074FF4AE784FF05B09FDF78BF940F229
:103190005D164FF0560740F25F184FF06109FDF7DA
:1031A00081F940F263164FF0530740F265184FF073
:1031B0005809FDF777F94FF4B3764FF059074FF4FC
:1031C000B7784FF05B09FDF76DF940F26F164FF0DD
:1031D000530740F271184FF05809FDF763F940F2B8
:1031E00069164FF05C0740F26B184FF06109FDF76C
:1031F00059F9BDE8FE9F2DE9FE5FD24640F2151653
:103200004FF0770740F217184FF08509FDF74AF99C
:103210004FF48C764FF07D0740F21D184FF07F0978
:10322000FDF740F94FF48F764FF077074FF4907821
:103230004FF08309FDF736F94FF492764FF07A0795
:103240004FF493784FF08209FDF72CF940F22716DE
:103250004FF077074FF496784FF07909FDF722F990
:1032600040F22D164FF07A0740F22F184FF08209E6
:10327000FDF718F940F227164FF083074FF49678C0
:103280004FF08509FDF70EF940F233164FF07A073B
:1032900040F235184FF08209FDF704F94FF49B76A0
:1032A0004FF0770740F23B184FF07909FDF7FAF835
:1032B0004FF49B764FF0830740F23B184FF085099F
:1032C000FDF7F0F84FF49E764FF07A074FF49F78B1
:1032D0004FF07C09FDF7E6F84FF49E764FF080073B
:1032E0004FF49F784FF08209FDF7DCF84FF4A17698
:1032F0004FF077074FF4A2784FF08509FDF7D2F829
:1033000040F245164FF07D0740F247184FF07F0915
:10331000FDF7C8F84FF4A4764FF080074FF4A57876
:103320004FF08209FDF7BEF840F24B164FF08307CD
:1033300040F24D184FF08509FDF7B4F84FF4A4762C
:103340004FF07A074FF4A5784FF07C09FDF7AAF803
:1033500040F24B164FF0770740F24D184FF07909C5
:10336000FDF7A0F840F251164FF0770740F25318DE
:103370004FF08509FDF796F84FF4AA764FF07707DE
:103380004FF4AE784FF07909FDF78CF84FF4AA7638
:103390004FF07D0740F259184FF07F09FDF782F892
:1033A0004FF4AA764FF083074FF4AE784FF08509BB
:1033B000FDF778F84FF4B0764FF077074FF4B17817
:1033C0004FF07C09FDF76EF840F263164FF07D0771
:1033D00040F26B184FF07F09FDF764F84FF4B676B2
:1033E0004FF077074FF4B7784FF07C09FDF75AF8A4
:1033F0004FF4B3764FF080074FF4B4784FF085095F
:10340000FDF750F8BDE8FE9F2DE9FE5FD24640F281
:1034100015164FF09B0740F217184FF0A909FDF75A
:1034200041F84FF48C764FF09B0740F21D184FF097
:103430009D09FDF737F84FF48C764FF0A10740F265
:103440001D184FF0A309FDF72DF84FF48C764FF0BF
:10345000A70740F21D184FF0A909FDF723F84FF414
:103460008F764FF09E074FF490784FF0A009FDF74C
:1034700019F84FF48F764FF0A4074FF490784FF07F
:10348000A609FDF70FF84FF492764FF09E074FF420
:1034900093784FF0A609FDF705F840F227164FF094
:1034A0009B074FF496784FF09D09FCF7FBFF40F225
:1034B0002D164FF09E0740F22F184FF0A609FCF78B
:1034C000F1FF40F227164FF0A7074FF496784FF020
:1034D000A909FCF7E7FF40F233164FF09B0740F2D3
:1034E00035184FF0A909FCF7DDFF4FF49B764FF03C
:1034F000A4074FF49C784FF0A609FCF7D3FF40F2E5
:1035000039164FF0A10740F23B184FF0A309FCF722
:10351000C9FF4FF49E764FF0A4074FF49F784FF009
:10352000A609FCF7BFFF40F23F164FF09B0740F2A1
:1035300041184FF0A909FCF7B5FF40F245164FF0CE
:103540009B0740F247184FF0A909FCF7ABFF4FF477
:10355000A4764FF0A7074FF4A8784FF0A909FCF71D
:10356000A1FF4FF4AA764FF09B074FF4AE784FF0CF
:103570009D09FCF797FF40F257164FF09E0740F267
:1035800059184FF0A609FCF78DFF4FF4AA764FF0BB
:10359000A7074FF4AE784FF0A909FCF783FF4FF46B
:1035A000B0764FF09B074FF4B1784FF0A909FCF7C4
:1035B00079FF40F263164FF09E0740F265184FF016
:1035C000A009FCF76FFF4FF4B3764FF0A1074FF45B
:1035D000B4784FF0A309FCF765FF40F269164FF08D
:1035E0009B0740F26B184FF0A909FCF75BFF40F214
:1035F0006F164FF09E0740F271184FF0A609FCF7C6
:1036000051FF4FF4B9764FF09B0740F277184FF017
:103610009D09FCF747FF4FF4B9764FF0A70740F23A
:1036200077184FF0A909FCF73DFF40F275164FF0EF
:10363000A1074FF4BD784FF0A309FCF733FF4FF417
:10364000BC764FF0A4074FF4BD784FF0A609FCF705
:1036500029FFBDE8FE9F2DE9FE5FD24640F2151618
:103660004FF0BF0740F217184FF0CA09FCF71AFFD6
:103670004FF48C764FF0CB0740F21D184FF0CD0978
:10368000FCF710FF4FF48F764FF0BF074FF49078A0
:103690004FF0CA09FCF706FF40F223164FF0BF07B0
:1036A0004FF493784FF0CD09FCF7FCFE40F227165B
:1036B0004FF0C20740F229184FF0C409FCF7F2FEA0
:1036C0004FF495764FF0C5074FF496784FF0C70941
:1036D000FCF7E8FE40F22D164FF0BF0740F22F181E
:1036E0004FF0CD09FCF7DEFE40F233164FF0BF0776
:1036F00040F235184FF0CD09FCF7D4FE4FF49B761D
:103700004FF0BF0740F23B184FF0C109FCF7CAFE6B
:103710004FF49B764FF0CB0740F23B184FF0CD09AA
:10372000FCF7C0FE4FF49E764FF0C2074FF49F782F
:103730004FF0CA09FCF7B6FE4FF4A1764FF0BF0771
:1037400040F24D184FF0C109FCF7ACFE4FF4A176E2
:103750004FF0BF074FF4A2784FF0CD09FCF7A2FE5F
:1037600040F245164FF0C5074FF4A5784FF0C70952
:10377000FCF798FE40F245164FF0CB0740F24D188B
:103780004FF0CD09FCF78EFE40F251164FF0BF0707
:1037900040F253184FF0CD09FCF784FE4FF4AA769F
:1037A0004FF0BF0740F259184FF0C109FCF77AFEFD
:1037B0004FF4AA764FF0C50740F259184FF0C709E9
:1037C000FCF770FE40F257164FF0C80740F2591848
:1037D0004FF0CA09FCF766FE4FF4AD764FF0CB0709
:1037E0004FF4AE784FF0CD09FCF75CFE4FF4AD76A8
:1037F0004FF0C2074FF4AE784FF0C409FCF752FE09
:103800004FF4B0764FF0BF074FF4B7784FF0C109CF
:10381000FCF748FE4FF4B3764FF0C2074FF4B4788C
:103820004FF0CD09FCF73EFE4FF4B9764FF0C207DA
:103830004FF4BA784FF0CD09FCF734FE40F275161C
:103840004FF0BF074FF4BD784FF0C109FCF72AFED7
:1038500040F275164FF0C5074FF4BD784FF0C70919
:10386000FCF720FE40F27B164FF0C20740F27D18B5
:103870004FF0CD09FCF716FE40F281164FF0BF075E
:1038800040F283184FF0CD09FCF70CFE4FF4C276DE
:103890004FF0CB074FF4C6784FF0CD09FCF702FE8E
:1038A0004FF4C8764FF0BF074FF4C9784FF0CD09F9
:1038B000FCF7F8FD40F293164FF0BF0740F29B185B
:1038C0004FF0C109FCF7EEFD40F293164FF0C5072B
:1038D0004FF4CC784FF0C709FCF7E4FD40F29316A3
:1038E0004FF0CB0740F29B184FF0CD09FCF7DAFD03
:1038F000BDE8FE9F2DE9FF5FD2464FF01A064FF05C
:1039000058074FF01C084FF05A09FCF7CBFD4FF059
:103910001D064FF055074FF025084FF05709FCF7EB
:10392000C1FD4FF01D064FF05B074FF022084FF02E
:103930005D09FCF7B7FD4FF023064FF05E074FF02F
:1039400025084FF06009FCF7ADFD4FF01A064FF067
:1039500061074FF022084FF06309FCF7A3FD4FF019
:1039600029064FF055074FF02B084FF06309FCF77D
:1039700099FD4FF02C064FF058074FF02E084FF0EE
:103980005A09FCF78FFD4FF02F064FF05B074FF001
:1039900031084FF05D09FCF785FD4FF032064FF01E
:1039A00055074FF034084FF06309FCF77BFD4FF0EB
:1039B00038064FF058074FF03A084FF06309FCF70C
:1039C00071FD4FF03B064FF055074FF040084FF0A8
:1039D0005709FCF767FD4FF03B064FF05B074FF0D0
:1039E00040084FF05D09FCF75DFD4FF041064FF0D8
:1039F00058074FF043084FF06309FCF753FD4FF0B1
:103A000047064FF055074FF049084FF06309FCF7A0
:103A100049FD4FF04A064FF05B074FF04C084FF05E
:103A20005D09FCF73FFD4FF04D064FF058074FF092
:103A30004F084FF05A09FCF735FD4FF050064FF094
:103A400055074FF052084FF05709FCF72BFD4FF088
:103A50004D064FF05E074FF04F084FF06009FCF73E
:103A600021FD4FF050064FF061074FF052084FF024
:103A70006309FCF717FD4FF056064FF055074FF05E
:103A800058084FF06309FCF70DFD4FF059064FF051
:103A900055074FF061084FF05709FCF703FD4FF051
:103AA00059064FF05B074FF05E084FF05D09FCF7D9
:103AB000F9FC4FF059064FF061074FF061084FF0E5
:103AC0006309FCF7EFFCBDE8FF9F2DE9FE5FD246DE
:103AD0004FF01A064FF079074FF01C084FF0870996
:103AE000FCF7E0FC4FF01D064FF079074FF025087A
:103AF0004FF07B09FCF7D6FC4FF01D064FF07F0717
:103B00004FF022084FF08109FCF7CCFC4FF029065A
:103B10004FF079074FF02B084FF08709FCF7C2FCF4
:103B20004FF02C064FF085074FF034084FF087090F
:103B3000FCF7B8FC4FF038064FF07C074FF03A081E
:103B40004FF08709FCF7AEFC4FF03B064FF07F07C4
:103B50004FF040084FF08109FCF7A4FC4FF03B0602
:103B60004FF079074FF040084FF07B09FCF79AFCC3
:103B70004FF041064FF07C074FF043084FF08709A4
:103B8000FCF790FC4FF047064FF079074FF04908DB
:103B90004FF08709FCF786FC4FF04A064FF0790793
:103BA0004FF04F084FF07B09FCF77CFC4FF04A06C2
:103BB0004FF07F074FF04F084FF08109FCF772FC80
:103BC0004FF050064FF07C074FF052084FF07E093F
:103BD000FCF768FC4FF056064FF079074FF0580895
:103BE0004FF08709FCF75EFC4FF059064FF079075C
:103BF0004FF05E084FF07B09FCF754FC4FF05F0676
:103C00004FF07C074FF061084FF07E09FCF74AFC4B
:103C10004FF059064FF07F074FF05E084FF08109D3
:103C2000FCF740FC4FF065064FF079074FF067084E
:103C30004FF07E09FCF736FC4FF068064FF07F0727
:103C40004FF070084FF08109FCF72CFC4FF06B0629
:103C50004FF082074FF06D084FF08709FCF722FC08
:103C60004FF071064FF079074FF073084FF07E095F
:103C7000FCF718FC4FF07D064FF079074FF07F08F6
:103C80004FF08709FCF70EFC4FF080064FF07907E4
:103C90004FF085084FF07B09FCF704FC4FF08006DD
:103CA0004FF07F074FF085084FF08109FCF7FAFBD2
:103CB0004FF080064FF085074FF085084FF08709D9
:103CC000FCF7F0FB4FF086064FF07C074FF08808BA
:103CD0004FF07E09FCF7E6FB4FF086064FF08207B7
:103CE0004FF088084FF08409FCF7DCFB4FF08C069E
:103CF0004FF079074FF094084FF07B09FCF7D2FBA7
:103D00004FF08F064FF07C074FF091084FF0840979
:103D1000FCF7C8FB4FF08C064FF085074FF0940876
:103D20004FF08709FCF7BEFB4FF098064FF079077C
:103D30004FF09A084FF08709FCF7B4FB4FF09B0651
:103D40004FF079074FF0A0084FF07B09FCF7AAFB72
:103D50004FF09B064FF07F074FF0A0084FF081090E
:103D6000FCF7A0FB4FF09E064FF082074FF0A00833
:103D70004FF08409FCF796FB4FF0A1064FF07C074B
:103D80004FF0A3084FF07E09FCF78CFB4FF0A10623
:103D90004FF085074FF0A3084FF08709FCF782FB2F
:103DA0004FF0A7064FF079074FF0A9084FF08709A9
:103DB000FCF778FB4FF0AA064FF079074FF0AF08F9
:103DC0004FF07B09FCF76EFB4FF0AA064FF085071A
:103DD0004FF0AF084FF08709FCF764FB4FF0B006D7
:103DE0004FF07C074FF0B2084FF08409FCF75AFB04
:103DF000BDE8FE9F2DE9FE5FD2464FF01A064FF058
:103E00009D074FF01C084FF0AB09FCF74BFB4FF040
:103E10001D064FF09D074FF025084FF09F09FCF756
:103E200041FB4FF01D064FF0A3074FF022084FF063
:103E3000A509FCF737FB4FF029064FF09D074FF01F
:103E40002B084FF0AB09FCF72DFB4FF02C064FF081
:103E50009D074FF031084FF09F09FCF723FB4FF00F
:103E60002C064FF0A3074FF031084FF0A509FCF7DF
:103E700019FB4FF02F064FF0A6074FF031084FF017
:103E8000A809FCF70FFB4FF032064FF0A0074FF0E8
:103E900034084FF0A209FCF705FB4FF032064FF053
:103EA000A9074FF034084FF0AB09FCF7FBFA4FF0CD
:103EB00038064FF09D074FF03A084FF0A809FCF77D
:103EC000F1FA4FF03B064FF0A9074FF040084FF0D2
:103ED000AB09FCF7E7FA4FF041064FF09D074FF0B2
:103EE00043084FF0A809FCF7DDFA4FF047064FF002
:103EF0009D074FF04F084FF09F09FCF7D3FA4FF0A2
:103F00004A064FF0A0074FF04C084FF0A809FCF705
:103F1000C9FA4FF047064FF0A9074FF04F084FF08E
:103F2000AB09FCF7BFFA4FF053064FF09D074FF077
:103F300061084FF09F09FCF7B5FA4FF059064FF0B2
:103F4000A0074FF05B084FF0AB09FCF7ABFA4FF05E
:103F50006B064FF09D074FF06D084FF0AB09FCF773
:103F6000A1FA4FF06E064FF0A0074FF070084FF027
:103F7000A209FCF797FA4FF071064FF0A3074FF034
:103F800073084FF0A509FCF78DFA4FF074064FF057
:103F90009D074FF076084FF0AB09FCF783FA4FF01E
:103FA0007A064FF09D074FF082084FF09F09FCF70B
:103FB00079FA4FF07D064FF0A0074FF07F084FF0E1
:103FC000A809FCF76FFA4FF07A064FF0A9074FF0F7
:103FD00082084FF0AB09FCF765FA4FF086064FF008
:103FE0009D074FF088084FF0AB09FCF75BFA4FF0E4
:103FF00089064FF0A0074FF08B084FF0A209FCF79D
:1040000051FA4FF08C064FF0A3074FF08E084FF097
:10401000A509FCF747FA4FF08F064FF09D074FF0C8
:1040200091084FF0AB09FCF73DFA4FF095064FF0C1
:10403000A0074FF097084FF0A809FCF733FA4FF0AC
:1040400098064FF09D074FF09D084FF09F09FCF731
:1040500029FA4FF098064FF0A9074FF09D084FF04E
:10406000AB09FCF71FFA4FF09E064FF0A6074FF082
:10407000A0084FF0A809FCF715FA4FF09B064FF087
:10408000A3074FF0A0084FF0A509FCF70BFA4FF07B
:10409000A4064FF0A0074FF0A6084FF0AB09FCF7BD
:1040A00001FA4FF0A7064FF09D074FF0AC084FF014
:1040B0009F09FCF7F7F94FF0A7064FF0A3074FF061
:1040C000AC084FF0A509FCF7EDF94FF0AD064FF045
:1040D000A0074FF0AF084FF0AB09FCF7E3F9BDE8DC
:1040E000FE9F2DE9FE5FD2464FF01A064FF0C10742
:1040F0004FF01C084FF0CF09FCF7D4F94FF01D0624
:104100004FF0C1074FF022084FF0C309FCF7CAF97E
:104110004FF01D064FF0C7074FF022084FF0C909B6
:10412000FCF7C0F94FF01D064FF0CD074FF0220805
:104130004FF0CF09FCF7B6F94FF023064FF0C40754
:104140004FF025084FF0C609FCF7ACF94FF02306F5
:104150004FF0CA074FF025084FF0CC09FCF7A2F941
:104160004FF029064FF0C1074FF02B084FF0CF0951
:10417000FCF798F94FF02C064FF0C1074FF03108CB
:104180004FF0C309FCF78EF94FF02C064FF0C7072C
:104190004FF031084FF0C909FCF784F94FF02F06B2
:1041A0004FF0CA074FF031084FF0CC09FCF77AF90D
:1041B0004FF032064FF0CD074FF034084FF0CF09E3
:1041C000FCF770F94FF032064FF0C4074FF0340897
:1041D0004FF0C609FCF766F94FF038064FF0C107FB
:1041E0004FF040084FF0C309FCF75CF94FF03B0675
:1041F0004FF0C4074FF03D084FF0CC09FCF752F9DF
:104200004FF038064FF0CD074FF040084FF0CF0980
:10421000FCF748F94FF044064FF0C4074FF046084A
:104220004FF0CC09FCF73EF94FF047064FF0C107BD
:104230004FF04C084FF0C309FCF734F94FF0470634
:104240004FF0CD074FF04C084FF0CF09FCF72AF99B
:104250004FF04D064FF0C4074FF04F084FF0C6091E
:10426000FCF720F94FF04D064FF0CA074FF04F080A
:104270004FF0CC09FCF716F94FF053064FF0C10789
:104280004FF055084FF0CF09FCF70CF94FF05606E8
:104290004FF0C7074FF058084FF0C909FCF702F973
:1042A0004FF059064FF0C4074FF05B084FF0C609B6
:1042B000FCF7F8F84FF05C064FF0C1074FF05E08CE
:1042C0004FF0C309FCF7EEF84FF059064FF0CA075C
:1042D0004FF05B084FF0CC09FCF7E4F84FF05C06B8
:1042E0004FF0CD074FF05E084FF0CF09FCF7DAF83A
:1042F0004FF068064FF0C1074FF06A084FF0CF0942
:10430000FCF7D0F84FF06B064FF0C1074FF0700884
:104310004FF0C309FCF7C6F84FF06B064FF0C70724
:104320004FF070084FF0C909FCF7BCF84FF0710668
:104330004FF0C4074FF073084FF0C609FCF7B2F80E
:104340004FF06B064FF0CD074FF070084FF0CF09DC
:10435000FCF7A8F84FF071064FF0CA074FF073084A
:104360004FF0CC09FCF79EF84FF077064FF0C107ED
:104370004FF079084FF0CF09FCF794F84FF07A0628
:104380004FF0C1074FF07F084FF0C309FCF78AF8E0
:104390004FF07A064FF0C7074FF07F084FF0C9097A
:1043A000FCF780F84FF07D064FF0CA074FF07F080A
:1043B0004FF0CC09FCF776F84FF080064FF0C407B9
:1043C0004FF082084FF0C609FCF76CF84FF08006FA
:1043D0004FF0CD074FF082084FF0CF09FCF762F89D
:1043E0004FF086064FF0C1074FF088084FF0CF0915
:1043F000FCF758F84FF089064FF0C1074FF09108CD
:104400004FF0C309FCF74EF84FF089064FF0C7078D
:104410004FF08E084FF0C909FCF744F84FF08906B9
:104420004FF0CD074FF091084FF0CF09FCF73AF865
:104430004FF095064FF0C4074FF097084FF0CF09A3
:10444000FCF730F84FF098064FF0C1074FF09D0889
:104450004FF0C309FCF726F84FF098064FF0C70756
:104460004FF09D084FF0C909FCF71CF84FF09E066D
:104470004FF0C4074FF0A0084FF0CF09FCF712F837
:104480004FF0A4064FF0C1074FF0A6084FF0CF0938
:10449000FCF708F84FF0A7064FF0C7074FF0A90840
:1044A0004FF0C909FBF7FEFF4FF0AA064FF0C40713
:1044B0004FF0AC084FF0C609FBF7F4FF4FF0AD0624
:1044C0004FF0C1074FF0AF084FF0C309FBF7EAFF09
:1044D0004FF0AA064FF0CA074FF0AC084FF0CC09D6
:1044E000FBF7E0FF4FF0AD064FF0CD074FF0AF0800
:1044F0004FF0CF09FBF7D6FF4FF0B3064FF0C107DF
:104500004FF0BE084FF0C309FBF7CCFF4FF0B306E6
:104510004FF0C1074FF0B5084FF0CF09FBF7C2FFCE
:104520004FF0B6064FF0C7074FF0BB084FF0C90970
:10453000FBF7B8FF4FF0B4064FF0CD074FF0BE08C1
:104540004FF0CF09FBF7AEFF4FF0C2064FF0C107A7
:104550004FF0C4084FF0CF09FBF7A4FF4FF0C5069A
:104560004FF0C1074FF0CA084FF0C309FBF79AFF9D
:104570004FF0C5064FF0C7074FF0CA084FF0C90902
:10458000FBF790FF4FF0C8064FF0CA074FF0CA087C
:104590004FF0CC09FBF786FF4FF0CB064FF0CD076D
:1045A0004FF0CD084FF0CF09FBF77CFF4FF0CB0663
:1045B0004FF0C4074FF0CD084FF0C609FBF772FF6C
:1045C000BDE8FE9F2DE9FF5FD61E5F1E16F10708AE
:1045D00017F10309FBF766FF761C7F1E16F105082D
:1045E00017F10509FBF75EFF761C7F1E16F1030825
:1045F00017F10709FBF756FFBDE8FF9F2DE9FE5FA6
:104600004FF6FF7A4FF000064FF0F0084FF000072A
:104610004FF4A079FBF746FF4FF0000A4FF0F00689
:104620004FF4F0784FF000074FF4A079FBF73AFF12
:104630004FF0000A4FF099064FF0A0084FF018070E
:104640004FF01B09FBF72EFF4FF0000A4FF09506C5
:104650004FF098084FF01C074FF02709FBF722FF97
:104660004FF0000A4FF099064FF0A0084FF02807CE
:104670004FF02B09FBF716FF4FF0000A4FF0A10691
:104680004FF0A4084FF020074FF02709FBF70AFF6F
:104690004FF0000A4FF09D064FF0A0084FF02007A2
:1046A0004FF02309FBF7FEFE4FF0000A4FF0A9067A
:1046B0004FF0AC084FF01C074FF02B09FBF7F2FE50
:1046C0004FF0000A4FF0AD064FF0B4084FF0180756
:1046D0004FF01B09FBF7E6FE4FF0000A4FF0AD0666
:1046E0004FF0B4084FF020074FF02309FBF7DAFE34
:1046F0004FF0000A4FF0B5064FF0B8084FF01C0716
:104700004FF02B09FBF7CEFE4FF0000A4FF0BD062D
:104710004FF0C0084FF018074FF02B09FBF7C2FE0F
:104720004FF0000A4FF0C1064FF0C4084FF01C07CD
:104730004FF01F09FBF7B6FE4FF0000A4FF0C50619
:104740004FF0C8084FF020074FF02309FBF7AAFEEF
:104750004FF0000A4FF0C9064FF0CC084FF01C078D
:104760004FF01F09FBF79EFE4FF0000A4FF0CD06F9
:104770004FF0D0084FF018074FF02B09FBF792FECF
:104780004FF0000A4FF0D5064FF0D8084FF0180749
:104790004FF02B09FBF786FE4FF0000A4FF0D906C9
:1047A0004FF0E4084FF018074FF01B09FBF77AFEB3
:1047B0004FF0000A4FF0D9064FF0E0084FF0200705
:1047C0004FF02309FBF76EFE4FF0000A4FF0D906B9
:1047D0004FF0E4084FF028074FF02B09FBF762FE7B
:1047E0004FF6FF7A40F201164FF482784FF0180727
:1047F0004FF02B09FBF756FE4FF6FF7A40F20516F5
:104800004FF484784FF01C074FF01F09FBF74AFE66
:104810004FF6FF7A40F209164FF486784FF02007E2
:104820004FF02309FBF73EFE4FF6FF7A40F20D16DC
:104830004FF488784FF01C074FF01F09FBF732FE4A
:104840004FF6FF7A40F211164FF48A784FF01807AE
:104850004FF02B09FBF726FE4FF6FF7A40F21916B0
:104860004FF48E784FF018074FF02B09FBF71AFE24
:104870004FF6FF7A40F21D164FF494784FF0180768
:104880004FF01B09FBF70EFE4FF6FF7A40F21D16A4
:104890004FF492784FF020074FF02309FBF702FE08
:1048A0004FF6FF7A40F21D164FF494784FF0280728
:1048B0004FF02B09FBF7F6FD4FF6FF7A40F22D166D
:1048C0004FF498784FF018074FF02B09FBF7EAFDEB
:1048D0004FF6FF7A40F231164FF49A784FF01C07EA
:1048E0004FF01F09FBF7DEFD4FF6FF7A40F2351659
:1048F0004FF49C784FF020074FF02309FBF7D2FDCF
:104900004FF6FF7A40F239164FF49E784FF01807B1
:104910004FF02B09FBF7C6FD4FF6FF7A40F2411628
:104920004FF4A2784FF018074FF02709FBF7BAFDB4
:104930004FF6FF7A40F245164FF4A6784FF028075D
:104940004FF02B09FBF7AEFD4FF6FF7A40F24D1604
:104950004FF4A8784FF018074FF02709FBF7A2FD96
:10496000BDE8FE9F2DE9FE5FD2464FF01A064FF0DC
:10497000E5074FF01C084FF0F309FBF793FD4FF0EC
:104980001D064FF0EB074FF022084FF0ED09FBF743
:1049900089FD4FF01D064FF0E5074FF025084FF059
:1049A000E709FBF77FFD4FF029064FF0E5074FF0D1
:1049B00031084FF0E709FBF775FD4FF02C064FF07B
:1049C000E8074FF02E084FF0F009FBF76BFD4FF0B2
:1049D00029064FF0F1074FF031084FF0F309FBF7CC
:1049E00061FD4FF035064FF0E5074FF037084FF007
:1049F000F309FBF757FD4FF038064FF0E5074FF08E
:104A00003D084FF0E709FBF74DFD4FF03E064FF034
:104A1000E8074FF040084FF0EA09FBF743FD4FF07D
:104A200038064FF0EB074FF03D084FF0ED09FBF76C
:104A300039FD4FF03E064FF0F1074FF040084FF0C0
:104A4000F309FBF72FFD4FF03B064FF0EE074FF059
:104A50003D084FF0F009FBF725FD4FF044064FF0FD
:104A6000E5074FF04F084FF0E709FBF71BFD4FF04C
:104A700044064FF0E5074FF046084FF0F309FBF707
:104A800011FD4FF047064FF0EB074FF04C084FF089
:104A9000ED09FBF707FD4FF047064FF0F1074FF028
:104AA0004F084FF0F309FBF7FDFC4FF053064FF0B2
:104AB000E5074FF055084FF0F309FBF7F3FC4FF013
:104AC00056064FF0E5074FF05B084FF0E709FBF79C
:104AD000E9FC4FF05C064FF0E8074FF05E084FF03E
:104AE000F009FBF7DFFC4FF056064FF0F1074FF0EF
:104AF0005B084FF0F309FBF7D5FC4FF068064FF069
:104B0000E8074FF06A084FF0F009FBF7CBFC4FF0D5
:104B10006B064FF0E5074FF070084FF0E709FBF721
:104B2000C1FC4FF06B064FF0F1074FF070084FF0EB
:104B3000F309FBF7B7FC4FF071064FF0E8074FF0B1
:104B400073084FF0F009FBF7ADFC4FF077064FF01C
:104B5000E5074FF079084FF0F309FBF7A3FC4FF09E
:104B60007A064FF0E5074FF07F084FF0E709FBF7B3
:104B700099FC4FF080064FF0E8074FF082084FF0A5
:104B8000EA09FBF78FFC4FF07A064FF0EB074FF086
:104B90007F084FF0ED09FBF785FC4FF07D064FF0E5
:104BA000EE074FF07F084FF0F009FBF77BFC4FF06A
:104BB00080064FF0F1074FF082084FF0F309FBF742
:104BC00071FC4FF08C064FF0E5074FF09A084FF05C
:104BD000E709FBF767FC4FF092064FF0E8074FF04C
:104BE00094084FF0F309FBF75DFC4FF09E064FF081
:104BF000E5074FF0A6084FF0E709FBF753FC4FF02D
:104C0000A1064FF0E8074FF0A3084FF0F009FBF7BB
:104C100049FC4FF09E064FF0F1074FF0A6084FF009
:104C2000F309FBF73FFC4FF0AA064FF0E5074FF002
:104C3000AC084FF0F309FBF735FC4FF0AD064FF031
:104C4000E5074FF0B2084FF0E709FBF72BFC4FF0F8
:104C5000B3064FF0E8074FF0B5084FF0EA09FBF74D
:104C600021FC4FF0AD064FF0EB074FF0B2084FF0CC
:104C7000ED09FBF717FC4FF0B0064FF0EE074FF0D1
:104C8000B2084FF0F009FBF70DFC4FF0B3064FF000
:104C9000F1074FF0B5084FF0F309FBF703FC4FF0B5
:104CA000B9064FF0E5074FF0BB084FF0F309FBF7EB
:104CB000F9FB4FF0BC064FF0E5074FF0C4084FF08A
:104CC000E709FBF7EFFB4FF0BC064FF0EB074FF0A7
:104CD000C1084FF0ED09FBF7E5FB4FF0BC064FF0C4
:104CE000F1074FF0C4084FF0F309FBF7DBFB4FF07F
:104CF000C8064FF0E5074FF0CA084FF0F309FBF77D
:104D0000D1FB4FF0CB064FF0E5074FF0D0084FF046
:104D1000E709FBF7C7FB4FF0CB064FF0F1074FF069
:104D2000D0084FF0F309FBF7BDFB4FF0D1064FF071
:104D3000E8074FF0D3084FF0F009FBF7B3FBBDE8ED
:104D4000FE9F00002DE9FF5F00F072F800F050F9BF
:104D500000F05EF900F092F900F018FC00F0CEFBD4
:104D600000F00AFB00F064FB00F0B8FC00F07CFDF2
:104D700000F00CFD00F04CF900F00BF800F02EF8FC
:104D80004FF0FF3500F0A6FD00F0D4FDE2E7BDE8EE
:104D9000FF9F2DE9FF5F0F480F494FF00003C258F6
:104DA0004FEA124B51F803C0ABEB0C060BEB0C08AF
:104DB0004FF6FF7402EA0405A5F1040705F10409A2
:104DC0004FF4F06AFBF76EFB03F10403102BE6DDF2
:104DD000BDE8FF9F240100203C0100202DE9FF5F7A
:104DE0000F4806684FEA1641A1F119014FF6FF740A
:104DF00006EA0402A2F119020A4BFBF7BAFB0A48C1
:104E000006684FEA1641A1F119014FF6FF7406EA50
:104E10000402A2F11902054BFBF7ABFBBDE8FF9FB3
:104E200064000020988500086C0000208C99000820
:104E30002DE9FF5F5F4860494FF078024FF0500363
:104E40004FF6FF7403EA04034FEA024242EA030406
:104E500040F8044B4FF0500441F8044B4FF4B47247
:104E60004FF050034FF6FF7403EA04034FEA024287
:104E700042EA030440F8044B4FF0500441F8044B5D
:104E80004FF0F0024FF0A0034FF6FF7403EA040363
:104E90004FEA024242EA030440F8044B4FF08C040C
:104EA00041F8044B4FF078024FF0F0034FF6FF74D7
:104EB00003EA04034FEA024242EA030440F8044BC7
:104EC0004FF0500441F8044B4FF4B4724FF0F0032C
:104ED0004FF6FF7403EA04034FEA024242EA030476
:104EE00040F8044B4FF0500441F8044B33484FF066
:104EF000FF314FF01402002A04DDA2F1010240F854
:104F0000041BF8E72E484FF0FF314FF01402002A3F
:104F100004DDA2F1010240F8041BF8E729482A4900
:104F20004FF4B4724FF04B03A3F10A03A3F104034F
:104F3000A3F119034FEA02424FF6FF7403EA040398
:104F400042EA030404604FF000040C601F484FF075
:104F5000640101601E484FF0000101601D481E49B8
:104F60004FF078024FF04B03A3F10A03A3F10403BF
:104F7000A3F119034FEA02424FF6FF7403EA040358
:104F800042EA030404604FF000040C6013484FF041
:104F90006401016012484FF00001016011484FF0B8
:104FA0000001016010484FF0FF3101600F480160BF
:104FB000BDE8FF9F240100203C0100208400002068
:104FC000D40000206400002068000020740000204D
:104FD000780000206C000020700000207C00002081
:104FE00080000020540100206C010020700100208E
:104FF0002DE9FF5F4FF000064FF000074FF4F07807
:105000004FF4A07940F2B95AFBF74CFABDE8FF9F84
:105010002DE9FF5F4FF000064FF49B7706F105087E
:1050200040F23F194FF4784AFBF73CFA06F10A06C2
:1050300040F2DF1B5E45EFDB4FF00A074FF0000642
:105040004FF0090807F10509FBF72CFA07F10A07E9
:105050004FF49B7B5F45F1DB4FF00A074FF4EB7693
:1050600040F2DF1807F10509FBF71CFA07F10A0700
:105070004FF49B7B5F45F1DBBDE8FF9F2DE9FF5FB0
:1050800039480068002808BFFBF7FCF908BFFCF7A7
:10509000B9FBF3D035480068002808BFFBF7F2F9E8
:1050A00008BFFCF74FFAE9D0314800684FEA1041D9
:1050B0004FF6FF7C00EA0C024FF4F074A4F10903F0
:1050C000994208BFFBF7DEF908BFFCF79BFBD5D080
:1050D0004FF00904A14208BFFBF7D4F908BFFCF761
:1050E00091FBCBD04FF4A073A3F109039A4208BF00
:1050F000FBF7C8F908BFFCF785FBBFD04FF00000F5
:105100004FF000014FF000024FF000034FF0000499
:10511000184800684FEA10414FF6FF7C00EA0C0285
:105120004FF4F074A4F10903994208BFFBF7AAF900
:1051300008BFFCF707FAA1D04FF00904A14208BF4D
:10514000FBF7A0F908BFFCF7FDF997D04FF4A07367
:10515000A3F109039A4208BFFBF794F908BFFCF7D3
:10516000F1F98BD0BDE8FF9F740000207C00002087
:10517000640000206C0000202DE9FF5F0B480168EF
:10518000A1F1050101600A48016801F10101016016
:10519000084840F2B95A00F05CFB4FF0FF2500F0E0
:1051A00099FB00F0C7FBBDE8FF9F000074000020E2
:1051B00080000020D40000202DE9FF5F0B4801682B
:1051C000A1F1050101600A48016801F101010160D6
:1051D000084840F2B95A00F03CFB4FF0FF2500F0C0
:1051E00079FB00F0A7FBBDE8FF9F00007C000020DA
:1051F00078000020840000202DE9FF5B4C484D49D9
:105200005FF8E483D8F800804FEA18474FF6FF7C38
:105210000CEA08094FF000064FF0000A0A68002A5D
:1052200036D0012A34D0062E32DA06F1010604689F
:105230000D684FF6FF7C4FEA144204EA0C03A3F119
:10524000040CACF1020CE145ACBFA9EB0C0BACEBD0
:10525000090BBBF1190F16DC4FF0000CA2EB050C8B
:1052600002EB050B4FF6FF746745B8BFACEB0704C4
:10527000192C08DC5F45C8BFA7EB0B04192C02DC16
:105280004FF0010A04E000F1040001F10401CAE753
:10529000BDE8FF9B2DE9FF5B254826495FF8788430
:1052A000D8F800804FEA18474FF6FF7C0CEA08094F
:1052B0004FF000064FF0000A0A68002A36D0012A93
:1052C00034D0062E32DA06F1010604680D684FF676
:1052D000FF7C4FEA144204EA0C03A3F1040CACF186
:1052E000020CE145ACBFA9EB0C0BACEB090BBBF11D
:1052F000190F16DC4FF0000CA2EB050C02EB050BAE
:105300004FF6FF746745B8BFACEB0704192C08DCF7
:105310005F45C8BFA7EB0B04192C02DC4FF0010A54
:1053200004E000F1040001F10401CAE7BDE8FF9BBD
:10533000240100203C010020640000206C000020BB
:105340002DE9FF5FFAF754FF4FF4C871FBF775F9C9
:1053500000F128000246FAF74BFF4FF0F001FBF78F
:105360006CF900F1280003464FEA02424FEA03437A
:105370004FEA1343BDE8FF9F2DE9FF5F5A485B49A1
:1053800004680D684FEA14424FF6FF7C04EA0C03F0
:10539000002D4BD0FFF730FFBAF1010F46D0012DA1
:1053A00017D1192B15DD524E366806F0FF06012E77
:1053B0000FD1A2F1190602F1190803F11907A7F19B
:1053C000500707F1500940F2B95AFBF76BF8A3F107
:1053D0005003022D01BFA2F1190606F10508A3F141
:1053E000190703F1190904BF40F2B95AFBF75AF83B
:1053F00008BF0532032D01BF02F11906761F06F121
:105400000508A3F1190702BF03F1190940F2B95ABF
:10541000FBF748F808BF053A17464FEA07474FF62B
:10542000FF7203EA020347EA03070760BDE8FF9F34
:105430002DE9FF5F2F48304904680D684FEA144298
:105440004FF6FF7C04EA0C03002D4BD0FFF722FF40
:10545000BAF1010F46D0012D17D1192B15DD244EBD
:1054600036684FEA1646012EB3D1A2F1190602F1B1
:10547000190803F11907A7F1500707F1500940F285
:10548000B95AFBF70FF8A3F15003022D01BFA2F1A7
:10549000190606F10508A3F1190703F1190904BF5C
:1054A00040F2B95AFAF7FEFF08BF0532032D01BFDB
:1054B00002F11906761F06F10508A3F1190702BFCC
:1054C00003F1190940F2B95AFAF7ECFF08BF053A9F
:1054D00017464FEA07474FF6FF7203EA020347EA0F
:1054E00003070760BDE8FF9F6400002068000020FC
:1054F000540100206C000020700000202DE9FF5FA7
:105500001E4801681E484FF0000211F0400F08BF0E
:1055100000F040FA11F4805F08BF022211F4005F2E
:1055200008BF032211F0080F06D1164E36684FEA65
:105530001646012E08BF0122026010480168124879
:105540004FF0000211F0200F08BF00F052FA11F4E2
:10555000804F08BF022211F4004F08BF032211F050
:10556000100F08D1074E36684FEA06464FEA164636
:10557000012E08BF01220260BDE8FF9F1004024017
:105580006800002054010020700000202DE9FF5F1A
:105590004D4801684FEA01424FEA12424FEA114179
:1055A00002F119024FF000064848494F4FF000053C
:1055B00043594FEA03444FEA14444FEA1343A4EB20
:1055C0000208B8F1000F0EDBB8F1070F0BD857F83F
:1055D0000580A3EB0809494505DB03EB08094945AC
:1055E00001D84FF00106002E03D105F10405142D5A
:1055F000DEDD002E15D1A2F11902A2F11907A1F1E9
:10560000190601F1190807F1050940F2B95AFAF72C
:1056100049FF2D4802F105024FEA014141EA02012A
:1056200001604FEA064B2B4801684FEA01424FEAFE
:1056300012424FEA114102F119024FF000062348CD
:10564000234F4FF0000543594FEA03444FEA1444F7
:105650004FEA1343A4EB0208B8F1000F0EDBB8F1D8
:10566000070F0BD857F80580A3EB0809494505DB60
:1056700003EB0809494501D84FF00106002E03D17C
:1056800005F10405142DDEDD002E15D1A2F119025D
:10569000A2F11907A1F1190601F1190807F105098D
:1056A00040F2B95AFAF7FEFE0A4802F105024FEA43
:1056B000014141EA0201016007484BEA060BC0F8CC
:1056C00000B0BDE8FF9F000064000020240100201E
:1056D0003C0100206C000020540100202DE9FF5FF8
:1056E00028484FF000054159B1F1FF3F1CD04FEA67
:1056F00011434FEA01414FEA114103F10408A8F1B7
:105700000506A1F1010707F1020940F2B95AFAF7BB
:10571000C9FEA3F105034FEA034341EA03014151E6
:105720004FF6C07A00F080F805F104054C2DDADD63
:1057300015484FF000054159B1F1FF3F1CD04FEA29
:1057400011434FEA01414FEA1141A3F1040606F16A
:105750000508A1F1010707F1020940F2B95AFAF769
:10576000A1FE03F105034FEA034341EA030141515E
:105770004FF6C07A00F058F805F104054C2DDADD3B
:10578000BDE8FF9F84000020D40000202DE9FF5FCA
:105790004C4801684FEA01424FEA12424FEA114178
:1057A00002F11407A2F1140847484FF000054359CD
:1057B000B3F1FF3F0DD04FEA03444FEA14444FEAE0
:1057C00013438B4205DB444503DBBC4201DCFFF79E
:1057D000D3FC05F104054C2DE9DD3C4801684FEA96
:1057E00001424FEA12424FEA114102F11407A2F1BD
:1057F000140837484FF000054359B3F1FF3F0DD06F
:105800004FEA03444FEA14444FEA13438B4205DC4A
:10581000444503DBBC4201DCFFF7CEFC05F1040587
:105820004C2DE9DDBDE8FF9F2DE9FF5F41594FEAAF
:105830001146A6F104064FF6FF7401EA0407A7F12A
:10584000010706F1080807F10209FAF72BFEBDE887
:10585000FF9F2DE9FF5F40F2B95AFFF7E5FF4FF0D8
:10586000FF314151BDE8FF9F2DE9FF5F18484FF020
:1058700000054159B1F1FF3F07D04FEA1141A1F1B5
:105880000401092901D8FFF7E4FF05F104054C2DB7
:10589000EFDD0D484FF000054159B1F1FF3F0BD04E
:1058A0004FEA114101F104014FF4F077A7F1090724
:1058B000B94201DBFFF7CDFF05F104054C2DEBDD0F
:1058C000BDE8FF9F64000020D40000206C00002091
:1058D000840000202DE9FF5F144800684FF4D27B5C
:1058E0004FF0050C40F2B95A00F0FEF84FF0FF36C9
:1058F000B54218BF00F009F900F0F2F800F0C0F866
:105900000B4800684FF00A0B4FF0050C40F2B95AF3
:1059100000F0EAF84FF0FF36B54218BF00F0F5F896
:1059200000F0DEF800F0ACF8BDE8FF9F7400002046
:105930007C0000202DE9FF5F144800684FF4B47B21
:105940004FF0050C40F2B95A00F0CEF84FF0FF3698
:10595000B54218BF00F0D9F800F0C2F800F0A8F87E
:105960000B4800684FF0780B4FF0050C40F2B95A25
:1059700000F0BAF84FF0FF36B54218BF00F0C5F896
:1059800000F0AEF800F094F8BDE8FF9F780000202A
:10599000800000202DE9FF5FC6484FF00005142D60
:1059A00025DA05F101050168B1F1FF3F1CD1C24ABA
:1059B00012684FEA12434FEA02444FEA1444A3F13B
:1059C0001903A3F106034FEA034343EA0403036008
:1059D0004FF6FF7AB748A5F101054FF0040105FB2A
:1059E00001F5FFF721FF02E050F8041BD7E7BDE8FF
:1059F000FF9F2DE9FF5FB1484FF00005142D25DA18
:105A000005F101050168B1F1FF3F1CD1AC4A1268F4
:105A10004FEA12434FEA02444FEA144403F11903D8
:105A200003F106034FEA034343EA040303604FF61E
:105A3000FF7AA248A5F101054FF0040105FB01F52D
:105A4000FFF7F2FE02E050F8041BD7E7BDE8FF9F26
:105A500003B59C484FF01F01016000F075F803BDCD
:105A600003B598484CF61401016000F06DF803BDD1
:105A700003B5944840F2B951016000F065F803BDE8
:105A800003B590484FF47841016000F05DF803BD24
:105A900003B58C484FF6C071016000F055F803BDA6
:105AA00003B588484FF64041016000F04DF803BD52
:105AB00003B584484FF4F061016000F045F803BD80
:105AC00003B580484FF6FF71016000F03DF803BD5B
:105AD00003B57C484FF00001016000F035F803BDCC
